{
  "_format": "hh-sol-artifact-1",
  "contractName": "SIC",
  "sourceName": "contracts/SIC.sol",
  "abi": [
    {
      "inputs": [],
      "stateMutability": "nonpayable",
      "type": "constructor"
    },
    {
      "anonymous": false,
      "inputs": [
        {
          "indexed": true,
          "internalType": "address",
          "name": "previousOwner",
          "type": "address"
        },
        {
          "indexed": true,
          "internalType": "address",
          "name": "newOwner",
          "type": "address"
        }
      ],
      "name": "OwnershipTransferred",
      "type": "event"
    },
    {
      "inputs": [],
      "name": "getSignatures",
      "outputs": [
        {
          "internalType": "bytes[]",
          "name": "",
          "type": "bytes[]"
        }
      ],
      "stateMutability": "view",
      "type": "function"
    },
    {
      "inputs": [
        {
          "internalType": "bytes",
          "name": "sig",
          "type": "bytes"
        },
        {
          "internalType": "string",
          "name": "metadata",
          "type": "string"
        }
      ],
      "name": "mint",
      "outputs": [],
      "stateMutability": "nonpayable",
      "type": "function"
    },
    {
      "inputs": [],
      "name": "owner",
      "outputs": [
        {
          "internalType": "address",
          "name": "",
          "type": "address"
        }
      ],
      "stateMutability": "view",
      "type": "function"
    },
    {
      "inputs": [
        {
          "internalType": "bytes",
          "name": "sig",
          "type": "bytes"
        },
        {
          "internalType": "string",
          "name": "metadata",
          "type": "string"
        }
      ],
      "name": "receiveToken",
      "outputs": [],
      "stateMutability": "nonpayable",
      "type": "function"
    },
    {
      "inputs": [],
      "name": "renounceOwnership",
      "outputs": [],
      "stateMutability": "nonpayable",
      "type": "function"
    },
    {
      "inputs": [
        {
          "internalType": "bytes",
          "name": "sig",
          "type": "bytes"
        }
      ],
      "name": "tokenURI",
      "outputs": [
        {
          "internalType": "string",
          "name": "",
          "type": "string"
        }
      ],
      "stateMutability": "view",
      "type": "function"
    },
    {
      "inputs": [
        {
          "internalType": "bytes",
          "name": "sig",
          "type": "bytes"
        },
        {
          "internalType": "address",
          "name": "destSmartContract",
          "type": "address"
        }
      ],
      "name": "transfer",
      "outputs": [],
      "stateMutability": "nonpayable",
      "type": "function"
    },
    {
      "inputs": [
        {
          "internalType": "address",
          "name": "newOwner",
          "type": "address"
        }
      ],
      "name": "transferOwnership",
      "outputs": [],
      "stateMutability": "nonpayable",
      "type": "function"
    }
  ],
  "bytecode": "0x608060405234801561001057600080fd5b5061002d61002261003260201b60201c565b61003a60201b60201c565b6100fe565b600033905090565b60008060009054906101000a900473ffffffffffffffffffffffffffffffffffffffff169050816000806101000a81548173ffffffffffffffffffffffffffffffffffffffff021916908373ffffffffffffffffffffffffffffffffffffffff1602179055508173ffffffffffffffffffffffffffffffffffffffff168173ffffffffffffffffffffffffffffffffffffffff167f8be0079c531659141344cd1fd0a4f28419497f9722a3daafe3b4186f6b6457e060405160405180910390a35050565b6117378061010d6000396000f3fe608060405234801561001057600080fd5b50600436106100885760003560e01c80638da5cb5b1161005b5780638da5cb5b146100ff578063ad6f80ff1461011d578063bba1b1cd1461013b578063f2fde38b1461015757610088565b80630fb014541461008d5780632b1ccc9a146100bd578063607154bf146100d9578063715018a6146100f5575b600080fd5b6100a760048036038101906100a29190610a17565b610173565b6040516100b49190610adf565b60405180910390f35b6100d760048036038101906100d29190610ba2565b610223565b005b6100f360048036038101906100ee9190610ba2565b610290565b005b6100fd6102f5565b005b610107610309565b6040516101149190610c5b565b60405180910390f35b610125610332565b6040516101329190610d8d565b60405180910390f35b61015560048036038101906101509190610ddb565b61040b565b005b610171600480360381019061016c9190610e37565b610653565b005b60606001826040516101859190610ea0565b9081526020016040518091039020805461019e90610ee6565b80601f01602080910402602001604051908101604052809291908181526020018280546101ca90610ee6565b80156102175780601f106101ec57610100808354040283529160200191610217565b820191906000526020600020905b8154815290600101906020018083116101fa57829003601f168201915b50505050509050919050565b61022b6106d6565b8060018360405161023c9190610ea0565b9081526020016040518091039020908161025691906110cd565b5060028290806001815401808255809150506001900390600052602060002001600090919091909150908161028b91906111fa565b505050565b806001836040516102a19190610ea0565b908152602001604051809103902090816102bb91906110cd565b506002829080600181540180825580915050600190039060005260206000200160009091909190915090816102f091906111fa565b505050565b6102fd6106d6565b6103076000610754565b565b60008060009054906101000a900473ffffffffffffffffffffffffffffffffffffffff16905090565b60606002805480602002602001604051908101604052809291908181526020016000905b8282101561040257838290600052602060002001805461037590610ee6565b80601f01602080910402602001604051908101604052809291908181526020018280546103a190610ee6565b80156103ee5780601f106103c3576101008083540402835291602001916103ee565b820191906000526020600020905b8154815290600101906020018083116103d157829003601f168201915b505050505081526020019060010190610356565b50505050905090565b6104136106d6565b6000819050600060018460405161042a9190610ea0565b9081526020016040518091039020805461044390610ee6565b80601f016020809104026020016040519081016040528092919081815260200182805461046f90610ee6565b80156104bc5780601f10610491576101008083540402835291602001916104bc565b820191906000526020600020905b81548152906001019060200180831161049f57829003601f168201915b505050505090506001846040516104d39190610ea0565b908152602001604051809103902060006104ed9190610820565b60005b6002805490508110156105af57848051906020012060028281548110610519576105186112cc565b5b90600052602060002001604051610530919061137e565b60405180910390200361059c576002600160028054905061055191906113c4565b81548110610562576105616112cc565b5b90600052602060002001600282815481106105805761057f6112cc565b5b9060005260206000200190816105969190611423565b506105af565b80806105a79061150b565b9150506104f0565b5060028054806105c2576105c1611553565b5b6001900381819060005260206000200160006105de9190610860565b90558173ffffffffffffffffffffffffffffffffffffffff1663607154bf85836040518363ffffffff1660e01b815260040161061b9291906115cc565b600060405180830381600087803b15801561063557600080fd5b505af1158015610649573d6000803e3d6000fd5b5050505050505050565b61065b6106d6565b600073ffffffffffffffffffffffffffffffffffffffff168173ffffffffffffffffffffffffffffffffffffffff16036106ca576040517f08c379a00000000000000000000000000000000000000000000000000000000081526004016106c190611675565b60405180910390fd5b6106d381610754565b50565b6106de610818565b73ffffffffffffffffffffffffffffffffffffffff166106fc610309565b73ffffffffffffffffffffffffffffffffffffffff1614610752576040517f08c379a0000000000000000000000000000000000000000000000000000000008152600401610749906116e1565b60405180910390fd5b565b60008060009054906101000a900473ffffffffffffffffffffffffffffffffffffffff169050816000806101000a81548173ffffffffffffffffffffffffffffffffffffffff021916908373ffffffffffffffffffffffffffffffffffffffff1602179055508173ffffffffffffffffffffffffffffffffffffffff168173ffffffffffffffffffffffffffffffffffffffff167f8be0079c531659141344cd1fd0a4f28419497f9722a3daafe3b4186f6b6457e060405160405180910390a35050565b600033905090565b50805461082c90610ee6565b6000825580601f1061083e575061085d565b601f01602090049060005260206000209081019061085c91906108a0565b5b50565b50805461086c90610ee6565b6000825580601f1061087e575061089d565b601f01602090049060005260206000209081019061089c91906108a0565b5b50565b5b808211156108b95760008160009055506001016108a1565b5090565b6000604051905090565b600080fd5b600080fd5b600080fd5b600080fd5b6000601f19601f8301169050919050565b7f4e487b7100000000000000000000000000000000000000000000000000000000600052604160045260246000fd5b610924826108db565b810181811067ffffffffffffffff82111715610943576109426108ec565b5b80604052505050565b60006109566108bd565b9050610962828261091b565b919050565b600067ffffffffffffffff821115610982576109816108ec565b5b61098b826108db565b9050602081019050919050565b82818337600083830152505050565b60006109ba6109b584610967565b61094c565b9050828152602081018484840111156109d6576109d56108d6565b5b6109e1848285610998565b509392505050565b600082601f8301126109fe576109fd6108d1565b5b8135610a0e8482602086016109a7565b91505092915050565b600060208284031215610a2d57610a2c6108c7565b5b600082013567ffffffffffffffff811115610a4b57610a4a6108cc565b5b610a57848285016109e9565b91505092915050565b600081519050919050565b600082825260208201905092915050565b60005b83811015610a9a578082015181840152602081019050610a7f565b60008484015250505050565b6000610ab182610a60565b610abb8185610a6b565b9350610acb818560208601610a7c565b610ad4816108db565b840191505092915050565b60006020820190508181036000830152610af98184610aa6565b905092915050565b600067ffffffffffffffff821115610b1c57610b1b6108ec565b5b610b25826108db565b9050602081019050919050565b6000610b45610b4084610b01565b61094c565b905082815260208101848484011115610b6157610b606108d6565b5b610b6c848285610998565b509392505050565b600082601f830112610b8957610b886108d1565b5b8135610b99848260208601610b32565b91505092915050565b60008060408385031215610bb957610bb86108c7565b5b600083013567ffffffffffffffff811115610bd757610bd66108cc565b5b610be3858286016109e9565b925050602083013567ffffffffffffffff811115610c0457610c036108cc565b5b610c1085828601610b74565b9150509250929050565b600073ffffffffffffffffffffffffffffffffffffffff82169050919050565b6000610c4582610c1a565b9050919050565b610c5581610c3a565b82525050565b6000602082019050610c706000830184610c4c565b92915050565b600081519050919050565b600082825260208201905092915050565b6000819050602082019050919050565b600081519050919050565b600082825260208201905092915050565b6000610cc982610ca2565b610cd38185610cad565b9350610ce3818560208601610a7c565b610cec816108db565b840191505092915050565b6000610d038383610cbe565b905092915050565b6000602082019050919050565b6000610d2382610c76565b610d2d8185610c81565b935083602082028501610d3f85610c92565b8060005b85811015610d7b5784840389528151610d5c8582610cf7565b9450610d6783610d0b565b925060208a01995050600181019050610d43565b50829750879550505050505092915050565b60006020820190508181036000830152610da78184610d18565b905092915050565b610db881610c3a565b8114610dc357600080fd5b50565b600081359050610dd581610daf565b92915050565b60008060408385031215610df257610df16108c7565b5b600083013567ffffffffffffffff811115610e1057610e0f6108cc565b5b610e1c858286016109e9565b9250506020610e2d85828601610dc6565b9150509250929050565b600060208284031215610e4d57610e4c6108c7565b5b6000610e5b84828501610dc6565b91505092915050565b600081905092915050565b6000610e7a82610ca2565b610e848185610e64565b9350610e94818560208601610a7c565b80840191505092915050565b6000610eac8284610e6f565b915081905092915050565b7f4e487b7100000000000000000000000000000000000000000000000000000000600052602260045260246000fd5b60006002820490506001821680610efe57607f821691505b602082108103610f1157610f10610eb7565b5b50919050565b60008190508160005260206000209050919050565b60006020601f8301049050919050565b600082821b905092915050565b600060088302610f797fffffffffffffffffffffffffffffffffffffffffffffffffffffffffffffffff82610f3c565b610f838683610f3c565b95508019841693508086168417925050509392505050565b6000819050919050565b6000819050919050565b6000610fca610fc5610fc084610f9b565b610fa5565b610f9b565b9050919050565b6000819050919050565b610fe483610faf565b610ff8610ff082610fd1565b848454610f49565b825550505050565b600090565b61100d611000565b611018818484610fdb565b505050565b5b8181101561103c57611031600082611005565b60018101905061101e565b5050565b601f8211156110815761105281610f17565b61105b84610f2c565b8101602085101561106a578190505b61107e61107685610f2c565b83018261101d565b50505b505050565b600082821c905092915050565b60006110a460001984600802611086565b1980831691505092915050565b60006110bd8383611093565b9150826002028217905092915050565b6110d682610a60565b67ffffffffffffffff8111156110ef576110ee6108ec565b5b6110f98254610ee6565b611104828285611040565b600060209050601f8311600181146111375760008415611125578287015190505b61112f85826110b1565b865550611197565b601f19841661114586610f17565b60005b8281101561116d57848901518255600182019150602085019450602081019050611148565b8683101561118a5784890151611186601f891682611093565b8355505b6001600288020188555050505b505050505050565b60008190508160005260206000209050919050565b601f8211156111f5576111c68161119f565b6111cf84610f2c565b810160208510156111de578190505b6111f26111ea85610f2c565b83018261101d565b50505b505050565b61120382610ca2565b67ffffffffffffffff81111561121c5761121b6108ec565b5b6112268254610ee6565b6112318282856111b4565b600060209050601f8311600181146112645760008415611252578287015190505b61125c85826110b1565b8655506112c4565b601f1984166112728661119f565b60005b8281101561129a57848901518255600182019150602085019450602081019050611275565b868310156112b757848901516112b3601f891682611093565b8355505b6001600288020188555050505b505050505050565b7f4e487b7100000000000000000000000000000000000000000000000000000000600052603260045260246000fd5b6000815461130881610ee6565b6113128186610e64565b9450600182166000811461132d576001811461134257611375565b60ff1983168652811515820286019350611375565b61134b8561119f565b60005b8381101561136d5781548189015260018201915060208101905061134e565b838801955050505b50505092915050565b600061138a82846112fb565b915081905092915050565b7f4e487b7100000000000000000000000000000000000000000000000000000000600052601160045260246000fd5b60006113cf82610f9b565b91506113da83610f9b565b92508282039050818111156113f2576113f1611395565b5b92915050565b60008154905061140781610ee6565b9050919050565b60008190508160005260206000209050919050565b818103611431575050611509565b61143a826113f8565b67ffffffffffffffff811115611453576114526108ec565b5b61145d8254610ee6565b6114688282856111b4565b6000601f8311600181146114975760008415611485578287015490505b61148f85826110b1565b865550611502565b601f1984166114a58761140e565b96506114b08661119f565b60005b828110156114d8578489015482556001820191506001850194506020810190506114b3565b868310156114f557848901546114f1601f891682611093565b8355505b6001600288020188555050505b5050505050505b565b600061151682610f9b565b91507fffffffffffffffffffffffffffffffffffffffffffffffffffffffffffffffff820361154857611547611395565b5b600182019050919050565b7f4e487b7100000000000000000000000000000000000000000000000000000000600052603160045260246000fd5b600082825260208201905092915050565b600061159e82610ca2565b6115a88185611582565b93506115b8818560208601610a7c565b6115c1816108db565b840191505092915050565b600060408201905081810360008301526115e68185611593565b905081810360208301526115fa8184610aa6565b90509392505050565b7f4f776e61626c653a206e6577206f776e657220697320746865207a65726f206160008201527f6464726573730000000000000000000000000000000000000000000000000000602082015250565b600061165f602683610a6b565b915061166a82611603565b604082019050919050565b6000602082019050818103600083015261168e81611652565b9050919050565b7f4f776e61626c653a2063616c6c6572206973206e6f7420746865206f776e6572600082015250565b60006116cb602083610a6b565b91506116d682611695565b602082019050919050565b600060208201905081810360008301526116fa816116be565b905091905056fea2646970667358221220f3b01af5b9251ea29266f20286ebd1e642bd9cf42ee3788a0464173556fe536f64736f6c63430008110033",
  "linkReferences": {},
  "deployedLinkReferences": {}
}